{
  "transactions": [
    {
      "hash": "0xa6bff75e3c6739619428be3917f96aa181cf49dd485084da9c5c6f0e96c81fe7",
      "transactionType": "CALL",
      "contractName": null,
      "contractAddress": "0x818fc108459769e8d18dccec6768936720174155",
      "function": "setPrice(bytes32,int64,uint64,int32,uint256)",
      "arguments": [
        "0x0b43555ace6b39aae1b894097d0a9fc17f504c62fea598fa206cc6f5088e6e45",
        "400000000000",
        "10000000000",
        "-8",
        "1758973104"
      ],
      "transaction": {
        "from": "0xe62a2b235f7bb86c1122313153824d54e6137e77",
        "to": "0x818fc108459769e8d18dccec6768936720174155",
        "gas": "0x194d9",
        "value": "0x0",
        "input": "0xfe02dfd60b43555ace6b39aae1b894097d0a9fc17f504c62fea598fa206cc6f5088e6e450000000000000000000000000000000000000000000000000000005d21dba00000000000000000000000000000000000000000000000000000000002540be400fffffffffffffffffffffffffffffffffffffffffffffffffffffffffffffff80000000000000000000000000000000000000000000000000000000068d7ccb0",
        "nonce": "0x81",
        "chainId": "0xaa36a7"
      },
      "additionalContracts": [],
      "isFixedGasLimit": false
    },
    {
      "hash": "0xe0731b49982eab00866a355dfc59b92cea5d25001f116dcba3a4186ea517e3fc",
      "transactionType": "CALL",
      "contractName": null,
      "contractAddress": "0x818fc108459769e8d18dccec6768936720174155",
      "function": "setPrice(bytes32,int64,uint64,int32,uint256)",
      "arguments": [
        "0xee62665949c883f9e0f6f002eac32e00bd59dfe6c34e92a91c37d6a8322d6489",
        "11000000000000",
        "50000000000",
        "-8",
        "1758973104"
      ],
      "transaction": {
        "from": "0xe62a2b235f7bb86c1122313153824d54e6137e77",
        "to": "0x818fc108459769e8d18dccec6768936720174155",
        "gas": "0x194d9",
        "value": "0x0",
        "input": "0xfe02dfd6ee62665949c883f9e0f6f002eac32e00bd59dfe6c34e92a91c37d6a8322d648900000000000000000000000000000000000000000000000000000a012317b0000000000000000000000000000000000000000000000000000000000ba43b7400fffffffffffffffffffffffffffffffffffffffffffffffffffffffffffffff80000000000000000000000000000000000000000000000000000000068d7ccb0",
        "nonce": "0x82",
        "chainId": "0xaa36a7"
      },
      "additionalContracts": [],
      "isFixedGasLimit": false
    },
    {
      "hash": "0xb187ebb78016789055e0ef06084e6b6a301f600516cf0acb5f5028d413303c13",
      "transactionType": "CALL",
      "contractName": null,
      "contractAddress": "0x818fc108459769e8d18dccec6768936720174155",
      "function": "setPrice(bytes32,int64,uint64,int32,uint256)",
      "arguments": [
        "0xff064b881a0c0fff844177f881a313ff894bfc6093d33b5514e34d7faa41b7ef",
        "100000000",
        "10000000000",
        "-8",
        "1758973104"
      ],
      "transaction": {
        "from": "0xe62a2b235f7bb86c1122313153824d54e6137e77",
        "to": "0x818fc108459769e8d18dccec6768936720174155",
        "gas": "0x17e4a",
        "value": "0x0",
        "input": "0xfe02dfd6ff064b881a0c0fff844177f881a313ff894bfc6093d33b5514e34d7faa41b7ef0000000000000000000000000000000000000000000000000000000005f5e10000000000000000000000000000000000000000000000000000000002540be400fffffffffffffffffffffffffffffffffffffffffffffffffffffffffffffff80000000000000000000000000000000000000000000000000000000068d7ccb0",
        "nonce": "0x83",
        "chainId": "0xaa36a7"
      },
      "additionalContracts": [],
      "isFixedGasLimit": false
    },
    {
      "hash": "0x530aeca3b40e2c2a011d6f73b7d1ddd7f2349e3c1ed7206466dfbac36b009fca",
      "transactionType": "CALL",
      "contractName": null,
      "contractAddress": "0x818fc108459769e8d18dccec6768936720174155",
      "function": "setPrice(bytes32,int64,uint64,int32,uint256)",
      "arguments": [
        "0xc3c616edf761b05752b7dbe696995fec0b1e54988edaee794d878464e57ba591",
        "1200000000",
        "10000000000",
        "-8",
        "1758973104"
      ],
      "transaction": {
        "from": "0xe62a2b235f7bb86c1122313153824d54e6137e77",
        "to": "0x818fc108459769e8d18dccec6768936720174155",
        "gas": "0x17e4a",
        "value": "0x0",
        "input": "0xfe02dfd6c3c616edf761b05752b7dbe696995fec0b1e54988edaee794d878464e57ba5910000000000000000000000000000000000000000000000000000000047868c0000000000000000000000000000000000000000000000000000000002540be400fffffffffffffffffffffffffffffffffffffffffffffffffffffffffffffff80000000000000000000000000000000000000000000000000000000068d7ccb0",
        "nonce": "0x84",
        "chainId": "0xaa36a7"
      },
      "additionalContracts": [],
      "isFixedGasLimit": false
    }
  ],
  "receipts": [
    {
      "status": "0x1",
      "cumulativeGasUsed": "0x6c9945",
      "logs": [],
      "logsBloom": "0x00000000000000000000000000000000000000000000000000000000000000000000000000000000000000000000000000000000000000000000000000000000000000000000000000000000000000000000000000000000000000000000000000000000000000000000000000000000000000000000000000000000000000000000000000000000000000000000000000000000000000000000000000000000000000000000000000000000000000000000000000000000000000000000000000000000000000000000000000000000000000000000000000000000000000000000000000000000000000000000000000000000000000000000000000000000",
      "type": "0x2",
      "transactionHash": "0xa6bff75e3c6739619428be3917f96aa181cf49dd485084da9c5c6f0e96c81fe7",
      "transactionIndex": "0x54",
      "blockHash": "0xb8e48548959a56d0dca710905a5ecae16448987f290365d08ed72659aa9d56c0",
      "blockNumber": "0x8dc46d",
      "gasUsed": "0x114d2",
      "effectiveGasPrice": "0xf4249",
      "from": "0xe62a2b235f7bb86c1122313153824d54e6137e77",
      "to": "0x818fc108459769e8d18dccec6768936720174155",
      "contractAddress": null
    },
    {
      "status": "0x1",
      "cumulativeGasUsed": "0x6dae17",
      "logs": [],
      "logsBloom": "0x00000000000000000000000000000000000000000000000000000000000000000000000000000000000000000000000000000000000000000000000000000000000000000000000000000000000000000000000000000000000000000000000000000000000000000000000000000000000000000000000000000000000000000000000000000000000000000000000000000000000000000000000000000000000000000000000000000000000000000000000000000000000000000000000000000000000000000000000000000000000000000000000000000000000000000000000000000000000000000000000000000000000000000000000000000000",
      "type": "0x2",
      "transactionHash": "0xe0731b49982eab00866a355dfc59b92cea5d25001f116dcba3a4186ea517e3fc",
      "transactionIndex": "0x55",
      "blockHash": "0xb8e48548959a56d0dca710905a5ecae16448987f290365d08ed72659aa9d56c0",
      "blockNumber": "0x8dc46d",
      "gasUsed": "0x114d2",
      "effectiveGasPrice": "0xf4249",
      "from": "0xe62a2b235f7bb86c1122313153824d54e6137e77",
      "to": "0x818fc108459769e8d18dccec6768936720174155",
      "contractAddress": null
    },
    {
      "status": "0x1",
      "cumulativeGasUsed": "0x6f14e5",
      "logs": [],
      "logsBloom": "0x00000000000000000000000000000000000000000000000000000000000000000000000000000000000000000000000000000000000000000000000000000000000000000000000000000000000000000000000000000000000000000000000000000000000000000000000000000000000000000000000000000000000000000000000000000000000000000000000000000000000000000000000000000000000000000000000000000000000000000000000000000000000000000000000000000000000000000000000000000000000000000000000000000000000000000000000000000000000000000000000000000000000000000000000000000000",
      "type": "0x2",
      "transactionHash": "0xb187ebb78016789055e0ef06084e6b6a301f600516cf0acb5f5028d413303c13",
      "transactionIndex": "0x57",
      "blockHash": "0xb8e48548959a56d0dca710905a5ecae16448987f290365d08ed72659aa9d56c0",
      "blockNumber": "0x8dc46d",
      "gasUsed": "0x114c6",
      "effectiveGasPrice": "0xf4249",
      "from": "0xe62a2b235f7bb86c1122313153824d54e6137e77",
      "to": "0x818fc108459769e8d18dccec6768936720174155",
      "contractAddress": null
    },
    {
      "status": "0x1",
      "cumulativeGasUsed": "0x7029ab",
      "logs": [],
      "logsBloom": "0x00000000000000000000000000000000000000000000000000000000000000000000000000000000000000000000000000000000000000000000000000000000000000000000000000000000000000000000000000000000000000000000000000000000000000000000000000000000000000000000000000000000000000000000000000000000000000000000000000000000000000000000000000000000000000000000000000000000000000000000000000000000000000000000000000000000000000000000000000000000000000000000000000000000000000000000000000000000000000000000000000000000000000000000000000000000",
      "type": "0x2",
      "transactionHash": "0x530aeca3b40e2c2a011d6f73b7d1ddd7f2349e3c1ed7206466dfbac36b009fca",
      "transactionIndex": "0x58",
      "blockHash": "0xb8e48548959a56d0dca710905a5ecae16448987f290365d08ed72659aa9d56c0",
      "blockNumber": "0x8dc46d",
      "gasUsed": "0x114c6",
      "effectiveGasPrice": "0xf4249",
      "from": "0xe62a2b235f7bb86c1122313153824d54e6137e77",
      "to": "0x818fc108459769e8d18dccec6768936720174155",
      "contractAddress": null
    }
  ],
  "libraries": [],
  "pending": [],
  "returns": {},
  "timestamp": 1758973141236,
  "chain": 11155111,
  "commit": "5995ca1"
}