{
  "transactions": [
    {
      "hash": "0x8f9c4052e0b1aeafa96221cbdd10f65f6858b8fd918e6979712e0ef870fbfcab",
      "transactionType": "CREATE",
      "contractName": "MockPyth",
      "contractAddress": "0x45a43d9c94ee95f684f2c5584353b7527a5208fd",
      "function": null,
      "arguments": null,
      "transaction": {
        "from": "0xe62a2b235f7bb86c1122313153824d54e6137e77",
        "gas": "0xb09d9",
        "value": "0x0",
        "input": "0x60808060405234601b5761012c6002556108bb90816100208239f35b5f80fdfe60806040526004361015610011575f80fd5b5f3560e01c80630142ea6a1461071b578063161e444e146106785780631aa03be0146105a957806331d98b3f14610578578063711a2e281461054a5780639474f45b1461051857806396834ad31461046e5780639bd92cad14610455578063a4ae35e01461039d578063b5dcc91114610289578063b9256d2814610219578063d47eed45146101dc578063e18910a3146101bf578063ef9e5e28146101915763fe02dfd6146100be575f80fd5b3461018d5760016100ce36610750565b9294939280610187575042925b6100e36107de565b9560070b865267ffffffffffffffff6020870193168352604086019160030b8252606086019384525f525f60205260405f209451917fffffffffffffffffffffffff000000000000000000000000000000000000000067ffffffffffffffff6fffffffffffffffff00000000000000008854935160401b16935160801b73ffffffff0000000000000000000000000000000016941691161717178355519101555f80f35b926100db565b5f80fd5b602060031936011261018d5760043567ffffffffffffffff811161018d576101bd9036906004016107ad565b005b3461018d575f60031936011261018d576020600254604051908152f35b3461018d57602060031936011261018d5760043567ffffffffffffffff811161018d5761020d9036906004016107ad565b505060206040515f8152f35b606060031936011261018d5760043567ffffffffffffffff811161018d576102459036906004016107ad565b505060243567ffffffffffffffff811161018d576102679036906004016107ad565b505060443567ffffffffffffffff811161018d576101bd9036906004016107ad565b3461018d57602060031936011261018d576102a261082b565b506004355f52600160205260405f2060016102bb6107de565b9180548060070b845267ffffffffffffffff8160401c16602085015260801c60030b60408401520154606082019080825215610375576102fc90514261084b565b6002541061034d5761034990604051918291829190916060806080830194805160070b845267ffffffffffffffff6020820151166020850152604081015160030b60408501520151910152565b0390f35b7f19abf40e000000000000000000000000000000000000000000000000000000005f5260045ffd5b7f14aebe68000000000000000000000000000000000000000000000000000000005f5260045ffd5b3461018d576103ab36610797565b906103b461082b565b505f525f60205260405f209060016103ca6107de565b9280548060070b855267ffffffffffffffff8160401c16602086015260801c60030b604085015201546060830190808252156103755761040b90514261084b565b1161034d5761034990604051918291829190916060806080830194805160070b845267ffffffffffffffff6020820151166020850152604081015160030b60408501520151910152565b3461018d57602060031936011261018d57600435600255005b3461018d57602060031936011261018d5761048761082b565b506004355f525f60205260405f20600161049f6107de565b9180548060070b845267ffffffffffffffff8160401c16602085015260801c60030b60408401520154806060830152156103755761034990604051918291829190916060806080830194805160070b845267ffffffffffffffff6020820151166020850152604081015160030b60408501520151910152565b3461018d57602060031936011261018d5761053161082b565b506004355f52600160205260405f20600161049f6107de565b3461018d5761055836610797565b9061056161082b565b505f52600160205260405f209060016103ca6107de565b3461018d57602060031936011261018d5761059161082b565b506004355f525f60205260405f2060016102bb6107de565b3461018d5760016105b936610750565b9294939280610672575042925b6105ce6107de565b9560070b865267ffffffffffffffff6020870193168352604086019160030b8252606086019384525f528360205260405f209451917fffffffffffffffffffffffff000000000000000000000000000000000000000067ffffffffffffffff6fffffffffffffffff00000000000000008854935160401b16935160801b73ffffffff0000000000000000000000000000000016941691161717178355519101555f80f35b926105c6565b3461018d57602060031936011261018d5761069161082b565b506004355f525f60205261034960405f2060016106ac6107de565b9180548060070b845267ffffffffffffffff8160401c16602085015260801c60030b604084015201546060820152604051918291829190916060806080830194805160070b845267ffffffffffffffff6020820151166020850152604081015160030b60408501520151910152565b3461018d57602060031936011261018d5761073461082b565b506004355f52600160205261034960405f2060016106ac6107de565b60031960a091011261018d57600435906024358060070b810361018d579060443567ffffffffffffffff8116810361018d57906064358060030b810361018d579060843590565b600319604091011261018d576004359060243590565b9181601f8401121561018d5782359167ffffffffffffffff831161018d576020808501948460051b01011161018d57565b604051906080820182811067ffffffffffffffff8211176107fe57604052565b7f4e487b71000000000000000000000000000000000000000000000000000000005f52604160045260245ffd5b6108336107de565b905f82525f60208301525f60408301525f6060830152565b9190820391821161085857565b7f4e487b71000000000000000000000000000000000000000000000000000000005f52601160045260245ffdfea2646970667358221220d6bcca1518389e20810a00ce62e8feed99dde7f8761d7e286867f6a40336e2d864736f6c634300081c0033",
        "nonce": "0xa0",
        "chainId": "0xaa36a7"
      },
      "additionalContracts": [],
      "isFixedGasLimit": false
    },
    {
      "hash": "0x0f343f1527be2e1e49cc011eac08285a58789f51e2b763f10d11dc723e2a6300",
      "transactionType": "CALL",
      "contractName": "MockPyth",
      "contractAddress": "0x45a43d9c94ee95f684f2c5584353b7527a5208fd",
      "function": "setPrice(bytes32,int64,uint64,int32,uint256)",
      "arguments": [
        "0x0b43555ace6b39aae1b894097d0a9fc17f504c62fea598fa206cc6f5088e6e45",
        "400000000000",
        "10000000000",
        "-8",
        "1758980028"
      ],
      "transaction": {
        "from": "0xe62a2b235f7bb86c1122313153824d54e6137e77",
        "to": "0x45a43d9c94ee95f684f2c5584353b7527a5208fd",
        "gas": "0x16dba",
        "value": "0x0",
        "input": "0xfe02dfd60b43555ace6b39aae1b894097d0a9fc17f504c62fea598fa206cc6f5088e6e450000000000000000000000000000000000000000000000000000005d21dba00000000000000000000000000000000000000000000000000000000002540be400fffffffffffffffffffffffffffffffffffffffffffffffffffffffffffffff80000000000000000000000000000000000000000000000000000000068d7e7bc",
        "nonce": "0xa1",
        "chainId": "0xaa36a7"
      },
      "additionalContracts": [],
      "isFixedGasLimit": false
    },
    {
      "hash": "0x741d9dc4131770a8d6fa7c7f4bd4e663c7bcc1cfdcb79829d298c4330d5af8bf",
      "transactionType": "CALL",
      "contractName": "MockPyth",
      "contractAddress": "0x45a43d9c94ee95f684f2c5584353b7527a5208fd",
      "function": "setPrice(bytes32,int64,uint64,int32,uint256)",
      "arguments": [
        "0xee62665949c883f9e0f6f002eac32e00bd59dfe6c34e92a91c37d6a8322d6489",
        "11000000000000",
        "50000000000",
        "-8",
        "1758980028"
      ],
      "transaction": {
        "from": "0xe62a2b235f7bb86c1122313153824d54e6137e77",
        "to": "0x45a43d9c94ee95f684f2c5584353b7527a5208fd",
        "gas": "0x16dba",
        "value": "0x0",
        "input": "0xfe02dfd6ee62665949c883f9e0f6f002eac32e00bd59dfe6c34e92a91c37d6a8322d648900000000000000000000000000000000000000000000000000000a012317b0000000000000000000000000000000000000000000000000000000000ba43b7400fffffffffffffffffffffffffffffffffffffffffffffffffffffffffffffff80000000000000000000000000000000000000000000000000000000068d7e7bc",
        "nonce": "0xa2",
        "chainId": "0xaa36a7"
      },
      "additionalContracts": [],
      "isFixedGasLimit": false
    },
    {
      "hash": "0xba7a8b409d4562367479c8d252cb7555da69249b379a753ac14ddbe76afcb32b",
      "transactionType": "CALL",
      "contractName": "MockPyth",
      "contractAddress": "0x45a43d9c94ee95f684f2c5584353b7527a5208fd",
      "function": "setPrice(bytes32,int64,uint64,int32,uint256)",
      "arguments": [
        "0xff064b881a0c0fff844177f881a313ff894bfc6093d33b5514e34d7faa41b7ef",
        "100000000",
        "10000000000",
        "-8",
        "1758980028"
      ],
      "transaction": {
        "from": "0xe62a2b235f7bb86c1122313153824d54e6137e77",
        "to": "0x45a43d9c94ee95f684f2c5584353b7527a5208fd",
        "gas": "0x16da9",
        "value": "0x0",
        "input": "0xfe02dfd6ff064b881a0c0fff844177f881a313ff894bfc6093d33b5514e34d7faa41b7ef0000000000000000000000000000000000000000000000000000000005f5e10000000000000000000000000000000000000000000000000000000002540be400fffffffffffffffffffffffffffffffffffffffffffffffffffffffffffffff80000000000000000000000000000000000000000000000000000000068d7e7bc",
        "nonce": "0xa3",
        "chainId": "0xaa36a7"
      },
      "additionalContracts": [],
      "isFixedGasLimit": false
    },
    {
      "hash": "0xfa4ef4803a87c8f8ff93a844ad2126aa67ec95222a5bfba6cca26b2cb9d1ad0d",
      "transactionType": "CALL",
      "contractName": "MockPyth",
      "contractAddress": "0x45a43d9c94ee95f684f2c5584353b7527a5208fd",
      "function": "setPrice(bytes32,int64,uint64,int32,uint256)",
      "arguments": [
        "0xc3c616edf761b05752b7dbe696995fec0b1e54988edaee794d878464e57ba591",
        "1200000000",
        "10000000000",
        "-8",
        "1758980028"
      ],
      "transaction": {
        "from": "0xe62a2b235f7bb86c1122313153824d54e6137e77",
        "to": "0x45a43d9c94ee95f684f2c5584353b7527a5208fd",
        "gas": "0x16da9",
        "value": "0x0",
        "input": "0xfe02dfd6c3c616edf761b05752b7dbe696995fec0b1e54988edaee794d878464e57ba5910000000000000000000000000000000000000000000000000000000047868c0000000000000000000000000000000000000000000000000000000002540be400fffffffffffffffffffffffffffffffffffffffffffffffffffffffffffffff80000000000000000000000000000000000000000000000000000000068d7e7bc",
        "nonce": "0xa4",
        "chainId": "0xaa36a7"
      },
      "additionalContracts": [],
      "isFixedGasLimit": false
    }
  ],
  "receipts": [
    {
      "status": "0x1",
      "cumulativeGasUsed": "0xa88f8a",
      "logs": [],
      "logsBloom": "0x00000000000000000000000000000000000000000000000000000000000000000000000000000000000000000000000000000000000000000000000000000000000000000000000000000000000000000000000000000000000000000000000000000000000000000000000000000000000000000000000000000000000000000000000000000000000000000000000000000000000000000000000000000000000000000000000000000000000000000000000000000000000000000000000000000000000000000000000000000000000000000000000000000000000000000000000000000000000000000000000000000000000000000000000000000000",
      "type": "0x2",
      "transactionHash": "0x8f9c4052e0b1aeafa96221cbdd10f65f6858b8fd918e6979712e0ef870fbfcab",
      "transactionIndex": "0x9d",
      "blockHash": "0xb2c8f85e00c6293d6ccfc7f0f383ed46b49fea4516124b3265c98a13d73df228",
      "blockNumber": "0x8dc6a2",
      "gasUsed": "0x87dbb",
      "effectiveGasPrice": "0xf424c",
      "from": "0xe62a2b235f7bb86c1122313153824d54e6137e77",
      "to": null,
      "contractAddress": "0x45a43d9c94ee95f684f2c5584353b7527a5208fd"
    },
    {
      "status": "0x1",
      "cumulativeGasUsed": "0xa99852",
      "logs": [],
      "logsBloom": "0x00000000000000000000000000000000000000000000000000000000000000000000000000000000000000000000000000000000000000000000000000000000000000000000000000000000000000000000000000000000000000000000000000000000000000000000000000000000000000000000000000000000000000000000000000000000000000000000000000000000000000000000000000000000000000000000000000000000000000000000000000000000000000000000000000000000000000000000000000000000000000000000000000000000000000000000000000000000000000000000000000000000000000000000000000000000",
      "type": "0x2",
      "transactionHash": "0x0f343f1527be2e1e49cc011eac08285a58789f51e2b763f10d11dc723e2a6300",
      "transactionIndex": "0x9e",
      "blockHash": "0xb2c8f85e00c6293d6ccfc7f0f383ed46b49fea4516124b3265c98a13d73df228",
      "blockNumber": "0x8dc6a2",
      "gasUsed": "0x108c8",
      "effectiveGasPrice": "0xf424c",
      "from": "0xe62a2b235f7bb86c1122313153824d54e6137e77",
      "to": "0x45a43d9c94ee95f684f2c5584353b7527a5208fd",
      "contractAddress": null
    },
    {
      "status": "0x1",
      "cumulativeGasUsed": "0xaaa11a",
      "logs": [],
      "logsBloom": "0x00000000000000000000000000000000000000000000000000000000000000000000000000000000000000000000000000000000000000000000000000000000000000000000000000000000000000000000000000000000000000000000000000000000000000000000000000000000000000000000000000000000000000000000000000000000000000000000000000000000000000000000000000000000000000000000000000000000000000000000000000000000000000000000000000000000000000000000000000000000000000000000000000000000000000000000000000000000000000000000000000000000000000000000000000000000",
      "type": "0x2",
      "transactionHash": "0x741d9dc4131770a8d6fa7c7f4bd4e663c7bcc1cfdcb79829d298c4330d5af8bf",
      "transactionIndex": "0x9f",
      "blockHash": "0xb2c8f85e00c6293d6ccfc7f0f383ed46b49fea4516124b3265c98a13d73df228",
      "blockNumber": "0x8dc6a2",
      "gasUsed": "0x108c8",
      "effectiveGasPrice": "0xf424c",
      "from": "0xe62a2b235f7bb86c1122313153824d54e6137e77",
      "to": "0x45a43d9c94ee95f684f2c5584353b7527a5208fd",
      "contractAddress": null
    },
    {
      "status": "0x1",
      "cumulativeGasUsed": "0xaba9d6",
      "logs": [],
      "logsBloom": "0x00000000000000000000000000000000000000000000000000000000000000000000000000000000000000000000000000000000000000000000000000000000000000000000000000000000000000000000000000000000000000000000000000000000000000000000000000000000000000000000000000000000000000000000000000000000000000000000000000000000000000000000000000000000000000000000000000000000000000000000000000000000000000000000000000000000000000000000000000000000000000000000000000000000000000000000000000000000000000000000000000000000000000000000000000000000",
      "type": "0x2",
      "transactionHash": "0xba7a8b409d4562367479c8d252cb7555da69249b379a753ac14ddbe76afcb32b",
      "transactionIndex": "0xa0",
      "blockHash": "0xb2c8f85e00c6293d6ccfc7f0f383ed46b49fea4516124b3265c98a13d73df228",
      "blockNumber": "0x8dc6a2",
      "gasUsed": "0x108bc",
      "effectiveGasPrice": "0xf424c",
      "from": "0xe62a2b235f7bb86c1122313153824d54e6137e77",
      "to": "0x45a43d9c94ee95f684f2c5584353b7527a5208fd",
      "contractAddress": null
    },
    {
      "status": "0x1",
      "cumulativeGasUsed": "0xacb292",
      "logs": [],
      "logsBloom": "0x00000000000000000000000000000000000000000000000000000000000000000000000000000000000000000000000000000000000000000000000000000000000000000000000000000000000000000000000000000000000000000000000000000000000000000000000000000000000000000000000000000000000000000000000000000000000000000000000000000000000000000000000000000000000000000000000000000000000000000000000000000000000000000000000000000000000000000000000000000000000000000000000000000000000000000000000000000000000000000000000000000000000000000000000000000000",
      "type": "0x2",
      "transactionHash": "0xfa4ef4803a87c8f8ff93a844ad2126aa67ec95222a5bfba6cca26b2cb9d1ad0d",
      "transactionIndex": "0xa1",
      "blockHash": "0xb2c8f85e00c6293d6ccfc7f0f383ed46b49fea4516124b3265c98a13d73df228",
      "blockNumber": "0x8dc6a2",
      "gasUsed": "0x108bc",
      "effectiveGasPrice": "0xf424c",
      "from": "0xe62a2b235f7bb86c1122313153824d54e6137e77",
      "to": "0x45a43d9c94ee95f684f2c5584353b7527a5208fd",
      "contractAddress": null
    }
  ],
  "libraries": [],
  "pending": [],
  "returns": {},
  "timestamp": 1758980053267,
  "chain": 11155111,
  "commit": "fe2b43b"
}